{
  "_format": "hh-sol-artifact-1",
  "contractName": "MultiSenderV1",
  "sourceName": "contracts/MultiSenderV1.sol",
  "abi": [
    {
      "anonymous": false,
      "inputs": [
        {
          "indexed": false,
          "internalType": "address",
          "name": "_operator",
          "type": "address"
        },
        {
          "indexed": false,
          "internalType": "uint256",
          "name": "_arrayLimit",
          "type": "uint256"
        }
      ],
      "name": "ArrayLimitChanged",
      "type": "event"
    },
    {
      "anonymous": false,
      "inputs": [
        {
          "indexed": false,
          "internalType": "address",
          "name": "_operator",
          "type": "address"
        },
        {
          "indexed": false,
          "internalType": "uint256",
          "name": "_feePerAccount",
          "type": "uint256"
        }
      ],
      "name": "FeePerAccountChanged",
      "type": "event"
    },
    {
      "anonymous": false,
      "inputs": [
        {
          "indexed": false,
          "internalType": "uint8",
          "name": "version",
          "type": "uint8"
        }
      ],
      "name": "Initialized",
      "type": "event"
    },
    {
      "anonymous": false,
      "inputs": [
        {
          "indexed": true,
          "internalType": "address",
          "name": "previousOwner",
          "type": "address"
        },
        {
          "indexed": true,
          "internalType": "address",
          "name": "newOwner",
          "type": "address"
        }
      ],
      "name": "OwnershipTransferred",
      "type": "event"
    },
    {
      "anonymous": false,
      "inputs": [
        {
          "indexed": false,
          "internalType": "address",
          "name": "_token",
          "type": "address"
        },
        {
          "indexed": false,
          "internalType": "address",
          "name": "_sender",
          "type": "address"
        },
        {
          "indexed": false,
          "internalType": "uint256",
          "name": "_totalAmount",
          "type": "uint256"
        }
      ],
      "name": "Sent",
      "type": "event"
    },
    {
      "anonymous": false,
      "inputs": [
        {
          "indexed": false,
          "internalType": "address",
          "name": "_token",
          "type": "address"
        },
        {
          "indexed": false,
          "internalType": "address",
          "name": "_sender",
          "type": "address"
        },
        {
          "indexed": false,
          "internalType": "uint256[]",
          "name": "_tokenIds",
          "type": "uint256[]"
        }
      ],
      "name": "SentNFT",
      "type": "event"
    },
    {
      "anonymous": false,
      "inputs": [
        {
          "indexed": false,
          "internalType": "address",
          "name": "_sender",
          "type": "address"
        },
        {
          "indexed": false,
          "internalType": "uint256",
          "name": "_totalAmount",
          "type": "uint256"
        }
      ],
      "name": "SentNative",
      "type": "event"
    },
    {
      "anonymous": false,
      "inputs": [
        {
          "indexed": true,
          "internalType": "address",
          "name": "_operator",
          "type": "address"
        },
        {
          "indexed": true,
          "internalType": "address",
          "name": "_to",
          "type": "address"
        },
        {
          "indexed": false,
          "internalType": "uint256",
          "name": "_balance",
          "type": "uint256"
        }
      ],
      "name": "Withdrawn",
      "type": "event"
    },
    {
      "inputs": [],
      "name": "arrayLimit",
      "outputs": [
        {
          "internalType": "uint256",
          "name": "",
          "type": "uint256"
        }
      ],
      "stateMutability": "view",
      "type": "function"
    },
    {
      "inputs": [],
      "name": "feePerAccount",
      "outputs": [
        {
          "internalType": "uint256",
          "name": "",
          "type": "uint256"
        }
      ],
      "stateMutability": "view",
      "type": "function"
    },
    {
      "inputs": [
        {
          "internalType": "uint256",
          "name": "_arrayLimit",
          "type": "uint256"
        },
        {
          "internalType": "uint256",
          "name": "_feePerAccount",
          "type": "uint256"
        }
      ],
      "name": "initialize",
      "outputs": [],
      "stateMutability": "nonpayable",
      "type": "function"
    },
    {
      "inputs": [
        {
          "internalType": "contract IERC1155Upgradeable",
          "name": "_token",
          "type": "address"
        },
        {
          "internalType": "address[]",
          "name": "_to",
          "type": "address[]"
        },
        {
          "internalType": "uint256[]",
          "name": "_id",
          "type": "uint256[]"
        },
        {
          "internalType": "uint256[]",
          "name": "_amount",
          "type": "uint256[]"
        }
      ],
      "name": "multiSendERC1155",
      "outputs": [],
      "stateMutability": "nonpayable",
      "type": "function"
    },
    {
      "inputs": [
        {
          "internalType": "contract IERC721Upgradeable",
          "name": "_token",
          "type": "address"
        },
        {
          "internalType": "address[]",
          "name": "_to",
          "type": "address[]"
        },
        {
          "internalType": "uint256[]",
          "name": "_id",
          "type": "uint256[]"
        }
      ],
      "name": "multiSendERC721",
      "outputs": [],
      "stateMutability": "nonpayable",
      "type": "function"
    },
    {
      "inputs": [
        {
          "internalType": "address[]",
          "name": "_accounts",
          "type": "address[]"
        },
        {
          "internalType": "uint256[]",
          "name": "_amounts",
          "type": "uint256[]"
        }
      ],
      "name": "multiSendNativeToken",
      "outputs": [],
      "stateMutability": "payable",
      "type": "function"
    },
    {
      "inputs": [
        {
          "internalType": "address",
          "name": "_token",
          "type": "address"
        },
        {
          "internalType": "address[]",
          "name": "_accounts",
          "type": "address[]"
        },
        {
          "internalType": "uint256[]",
          "name": "_amounts",
          "type": "uint256[]"
        }
      ],
      "name": "multiSendToken",
      "outputs": [],
      "stateMutability": "payable",
      "type": "function"
    },
    {
      "inputs": [],
      "name": "owner",
      "outputs": [
        {
          "internalType": "address",
          "name": "",
          "type": "address"
        }
      ],
      "stateMutability": "view",
      "type": "function"
    },
    {
      "inputs": [],
      "name": "renounceOwnership",
      "outputs": [],
      "stateMutability": "nonpayable",
      "type": "function"
    },
    {
      "inputs": [
        {
          "internalType": "uint256",
          "name": "_arrayLimit",
          "type": "uint256"
        }
      ],
      "name": "setArrayLimit",
      "outputs": [],
      "stateMutability": "nonpayable",
      "type": "function"
    },
    {
      "inputs": [
        {
          "internalType": "uint256",
          "name": "_feePerAccount",
          "type": "uint256"
        }
      ],
      "name": "setFeePerAccount",
      "outputs": [],
      "stateMutability": "nonpayable",
      "type": "function"
    },
    {
      "inputs": [
        {
          "internalType": "address",
          "name": "newOwner",
          "type": "address"
        }
      ],
      "name": "transferOwnership",
      "outputs": [],
      "stateMutability": "nonpayable",
      "type": "function"
    },
    {
      "inputs": [
        {
          "internalType": "address",
          "name": "_to",
          "type": "address"
        }
      ],
      "name": "withdraw",
      "outputs": [],
      "stateMutability": "nonpayable",
      "type": "function"
    },
    {
      "stateMutability": "payable",
      "type": "receive"
    }
  ],
  "bytecode": "0x608060405234801561001057600080fd5b50612b92806100206000396000f3fe6080604052600436106100c65760003560e01c80638e8997181161007f578063e4a3011611610059578063e4a301161461021d578063eb022b1514610246578063ee8a0a301461026f578063f2fde38b14610298576100cd565b80638e899718146101ad578063a3c33a0f146101c9578063b4ae641c146101f2576100cd565b806308e5c148146100d257806350b7c6e7146100fb57806351cff8d9146101265780635b6d4b1c1461014f578063715018a61461016b5780638da5cb5b14610182576100cd565b366100cd57005b600080fd5b3480156100de57600080fd5b506100f960048036038101906100f4919061188f565b6102c1565b005b34801561010757600080fd5b50610110610380565b60405161011d91906118cb565b60405180910390f35b34801561013257600080fd5b5061014d60048036038101906101489190611944565b610386565b005b61016960048036038101906101649190611b8d565b6104ea565b005b34801561017757600080fd5b50610180610715565b005b34801561018e57600080fd5b5061019761079d565b6040516101a49190611c14565b60405180910390f35b6101c760048036038101906101c29190611c2f565b6107c7565b005b3480156101d557600080fd5b506101f060048036038101906101eb9190611cf8565b6109c1565b005b3480156101fe57600080fd5b50610207610c5e565b60405161021491906118cb565b60405180910390f35b34801561022957600080fd5b50610244600480360381019061023f9190611db3565b610c64565b005b34801561025257600080fd5b5061026d60048036038101906102689190611e31565b610d7a565b005b34801561027b57600080fd5b506102966004803603810190610291919061188f565b610ffa565b005b3480156102a457600080fd5b506102bf60048036038101906102ba9190611944565b6110b9565b005b6102c96111b1565b73ffffffffffffffffffffffffffffffffffffffff166102e761079d565b73ffffffffffffffffffffffffffffffffffffffff161461033d576040517f08c379a000000000000000000000000000000000000000000000000000000000815260040161033490611f19565b60405180910390fd5b806066819055507f2c4a137f204a402fa3de24fc37fcb0a6394f8149bf8baca289a7f746acac2c4b3382604051610375929190611f39565b60405180910390a150565b60665481565b61038e6111b1565b73ffffffffffffffffffffffffffffffffffffffff166103ac61079d565b73ffffffffffffffffffffffffffffffffffffffff1614610402576040517f08c379a00000000000000000000000000000000000000000000000000000000081526004016103f990611f19565b60405180910390fd5b600073ffffffffffffffffffffffffffffffffffffffff168173ffffffffffffffffffffffffffffffffffffffff161415610472576040517f08c379a000000000000000000000000000000000000000000000000000000000815260040161046990611fae565b60405180910390fd5b600047905061048182826111b9565b8173ffffffffffffffffffffffffffffffffffffffff163373ffffffffffffffffffffffffffffffffffffffff167fd1c19fbcd4551a5edfb66d43d2e337c04837afda3482b42bdf569a8fccdae5fb836040516104de91906118cb565b60405180910390a35050565b6104f4825161126a565b8051825114610538576040517f08c379a000000000000000000000000000000000000000000000000000000000815260040161052f90612040565b60405180910390fd5b6065548251111561057e576040517f08c379a0000000000000000000000000000000000000000000000000000000008152600401610575906120d2565b60405180910390fd5b600080600090505b835181101561067f57600073ffffffffffffffffffffffffffffffffffffffff168482815181106105ba576105b96120f2565b5b602002602001015173ffffffffffffffffffffffffffffffffffffffff1614158015610600575060008382815181106105f6576105f56120f2565b5b6020026020010151115b1561066c5761064384828151811061061b5761061a6120f2565b5b6020026020010151848381518110610636576106356120f2565b5b60200260200101516111b9565b828181518110610656576106556120f2565b5b6020026020010151826106699190612150565b91505b8080610677906121a6565b915050610586565b5061068a83516112b8565b3461069591906121ef565b8111156106d7576040517f08c379a00000000000000000000000000000000000000000000000000000000081526004016106ce9061226f565b60405180910390fd5b7f72b8b00411c57b58075b8d738bec11388e7247748d7c49dde5c0e01ba9aa595d3382604051610708929190611f39565b60405180910390a1505050565b61071d6111b1565b73ffffffffffffffffffffffffffffffffffffffff1661073b61079d565b73ffffffffffffffffffffffffffffffffffffffff1614610791576040517f08c379a000000000000000000000000000000000000000000000000000000000815260040161078890611f19565b60405180910390fd5b61079b60006112cf565b565b6000603360009054906101000a900473ffffffffffffffffffffffffffffffffffffffff16905090565b6107d1825161126a565b8051825114610815576040517f08c379a000000000000000000000000000000000000000000000000000000000815260040161080c90612040565b60405180910390fd5b6065548251111561085b576040517f08c379a0000000000000000000000000000000000000000000000000000000008152600401610852906120d2565b60405180910390fd5b600080600090505b835181101561097f57600073ffffffffffffffffffffffffffffffffffffffff16848281518110610897576108966120f2565b5b602002602001015173ffffffffffffffffffffffffffffffffffffffff16141580156108dd575060008382815181106108d3576108d26120f2565b5b6020026020010151115b1561096c57610943338583815181106108f9576108f86120f2565b5b6020026020010151858481518110610914576109136120f2565b5b60200260200101518873ffffffffffffffffffffffffffffffffffffffff16611395909392919063ffffffff16565b828181518110610956576109556120f2565b5b6020026020010151826109699190612150565b91505b8080610977906121a6565b915050610863565b507f3990db2d31862302a685e8086b5755072a6e2b5b780af1ee81ece35ee3cd33458433836040516109b39392919061228f565b60405180910390a150505050565b6109cb835161126a565b8151835114610a0f576040517f08c379a0000000000000000000000000000000000000000000000000000000008152600401610a0690612338565b60405180910390fd5b60655483511115610a55576040517f08c379a0000000000000000000000000000000000000000000000000000000008152600401610a4c906120d2565b60405180910390fd5b600080835167ffffffffffffffff811115610a7357610a72611987565b5b604051908082528060200260200182016040528015610aa15781602001602082028036833780820191505090505b50905060005b8551811015610c1a57600073ffffffffffffffffffffffffffffffffffffffff16868281518110610adb57610ada6120f2565b5b602002602001015173ffffffffffffffffffffffffffffffffffffffff1614610c07578673ffffffffffffffffffffffffffffffffffffffff1663f242432a33888481518110610b2e57610b2d6120f2565b5b6020026020010151888581518110610b4957610b486120f2565b5b6020026020010151888681518110610b6457610b636120f2565b5b60200260200101516040518563ffffffff1660e01b8152600401610b8b949392919061238f565b600060405180830381600087803b158015610ba557600080fd5b505af1158015610bb9573d6000803e3d6000fd5b50505050848181518110610bd057610bcf6120f2565b5b6020026020010151828481518110610beb57610bea6120f2565b5b602002602001018181525050600183610c049190612150565b92505b8080610c12906121a6565b915050610aa7565b507f9d8c0b36781d045176b27ff445fb16c019ba72659ecb800239e371a48ca2d4c4863383604051610c4e939291906124a5565b60405180910390a1505050505050565b60655481565b6000610c70600161141e565b90508015610c94576001600060016101000a81548160ff0219169083151502179055505b610c9c61150e565b82606581905550816066819055507fe0b40640e1ae86f6ec91fdad86540589c00399747c44f216e233a299c172e2093384604051610cdb929190611f39565b60405180910390a17f2c4a137f204a402fa3de24fc37fcb0a6394f8149bf8baca289a7f746acac2c4b3383604051610d14929190611f39565b60405180910390a18015610d755760008060016101000a81548160ff0219169083151502179055507f7f26b83ff96e1f2b6a682f133852f6798a09c465da95921460cefb38474024986001604051610d6c9190612535565b60405180910390a15b505050565b610d84825161126a565b8051825114610dc8576040517f08c379a0000000000000000000000000000000000000000000000000000000008152600401610dbf90612338565b60405180910390fd5b60655482511115610e0e576040517f08c379a0000000000000000000000000000000000000000000000000000000008152600401610e05906120d2565b60405180910390fd5b600080825167ffffffffffffffff811115610e2c57610e2b611987565b5b604051908082528060200260200182016040528015610e5a5781602001602082028036833780820191505090505b50905060005b8451811015610fb757600073ffffffffffffffffffffffffffffffffffffffff16858281518110610e9457610e936120f2565b5b602002602001015173ffffffffffffffffffffffffffffffffffffffff1614610fa4578573ffffffffffffffffffffffffffffffffffffffff166342842e0e33878481518110610ee757610ee66120f2565b5b6020026020010151878581518110610f0257610f016120f2565b5b60200260200101516040518463ffffffff1660e01b8152600401610f289392919061228f565b600060405180830381600087803b158015610f4257600080fd5b505af1158015610f56573d6000803e3d6000fd5b50505050838181518110610f6d57610f6c6120f2565b5b6020026020010151828481518110610f8857610f876120f2565b5b602002602001018181525050600183610fa19190612150565b92505b8080610faf906121a6565b915050610e60565b507f9d8c0b36781d045176b27ff445fb16c019ba72659ecb800239e371a48ca2d4c4853383604051610feb939291906124a5565b60405180910390a15050505050565b6110026111b1565b73ffffffffffffffffffffffffffffffffffffffff1661102061079d565b73ffffffffffffffffffffffffffffffffffffffff1614611076576040517f08c379a000000000000000000000000000000000000000000000000000000000815260040161106d90611f19565b60405180910390fd5b806065819055507fe0b40640e1ae86f6ec91fdad86540589c00399747c44f216e233a299c172e20933826040516110ae929190611f39565b60405180910390a150565b6110c16111b1565b73ffffffffffffffffffffffffffffffffffffffff166110df61079d565b73ffffffffffffffffffffffffffffffffffffffff1614611135576040517f08c379a000000000000000000000000000000000000000000000000000000000815260040161112c90611f19565b60405180910390fd5b600073ffffffffffffffffffffffffffffffffffffffff168173ffffffffffffffffffffffffffffffffffffffff1614156111a5576040517f08c379a000000000000000000000000000000000000000000000000000000000815260040161119c906125c2565b60405180910390fd5b6111ae816112cf565b50565b600033905090565b60008273ffffffffffffffffffffffffffffffffffffffff16826040516111df90612610565b60006040518083038185875af1925050503d806000811461121c576040519150601f19603f3d011682016040523d82523d6000602084013e611221565b606091505b5050905080611265576040517f08c379a000000000000000000000000000000000000000000000000000000000815260040161125c90612671565b60405180910390fd5b505050565b611273816112b8565b3410156112b5576040517f08c379a00000000000000000000000000000000000000000000000000000000081526004016112ac906126dd565b60405180910390fd5b50565b6000816066546112c891906126fd565b9050919050565b6000603360009054906101000a900473ffffffffffffffffffffffffffffffffffffffff16905081603360006101000a81548173ffffffffffffffffffffffffffffffffffffffff021916908373ffffffffffffffffffffffffffffffffffffffff1602179055508173ffffffffffffffffffffffffffffffffffffffff168173ffffffffffffffffffffffffffffffffffffffff167f8be0079c531659141344cd1fd0a4f28419497f9722a3daafe3b4186f6b6457e060405160405180910390a35050565b611418846323b872dd60e01b8585856040516024016113b69392919061228f565b604051602081830303815290604052907bffffffffffffffffffffffffffffffffffffffffffffffffffffffff19166020820180517bffffffffffffffffffffffffffffffffffffffffffffffffffffffff8381831617835250505050611567565b50505050565b60008060019054906101000a900460ff16156114955760018260ff1614801561144d575061144b3061162e565b155b61148c576040517f08c379a0000000000000000000000000000000000000000000000000000000008152600401611483906127c9565b60405180910390fd5b60009050611509565b8160ff1660008054906101000a900460ff1660ff16106114ea576040517f08c379a00000000000000000000000000000000000000000000000000000000081526004016114e1906127c9565b60405180910390fd5b816000806101000a81548160ff021916908360ff160217905550600190505b919050565b600060019054906101000a900460ff1661155d576040517f08c379a00000000000000000000000000000000000000000000000000000000081526004016115549061285b565b60405180910390fd5b611565611651565b565b60006115c9826040518060400160405280602081526020017f5361666545524332303a206c6f772d6c6576656c2063616c6c206661696c65648152508573ffffffffffffffffffffffffffffffffffffffff166116b29092919063ffffffff16565b905060008151111561162957808060200190518101906115e991906128b3565b611628576040517f08c379a000000000000000000000000000000000000000000000000000000000815260040161161f90612952565b60405180910390fd5b5b505050565b6000808273ffffffffffffffffffffffffffffffffffffffff163b119050919050565b600060019054906101000a900460ff166116a0576040517f08c379a00000000000000000000000000000000000000000000000000000000081526004016116979061285b565b60405180910390fd5b6116b06116ab6111b1565b6112cf565b565b60606116c184846000856116ca565b90509392505050565b60608247101561170f576040517f08c379a0000000000000000000000000000000000000000000000000000000008152600401611706906129e4565b60405180910390fd5b6117188561162e565b611757576040517f08c379a000000000000000000000000000000000000000000000000000000000815260040161174e90612a50565b60405180910390fd5b6000808673ffffffffffffffffffffffffffffffffffffffff1685876040516117809190612adf565b60006040518083038185875af1925050503d80600081146117bd576040519150601f19603f3d011682016040523d82523d6000602084013e6117c2565b606091505b50915091506117d28282866117de565b92505050949350505050565b606083156117ee5782905061183e565b6000835111156118015782518084602001fd5b816040517f08c379a00000000000000000000000000000000000000000000000000000000081526004016118359190612b3a565b60405180910390fd5b9392505050565b6000604051905090565b600080fd5b600080fd5b6000819050919050565b61186c81611859565b811461187757600080fd5b50565b60008135905061188981611863565b92915050565b6000602082840312156118a5576118a461184f565b5b60006118b38482850161187a565b91505092915050565b6118c581611859565b82525050565b60006020820190506118e060008301846118bc565b92915050565b600073ffffffffffffffffffffffffffffffffffffffff82169050919050565b6000611911826118e6565b9050919050565b61192181611906565b811461192c57600080fd5b50565b60008135905061193e81611918565b92915050565b60006020828403121561195a5761195961184f565b5b60006119688482850161192f565b91505092915050565b600080fd5b6000601f19601f8301169050919050565b7f4e487b7100000000000000000000000000000000000000000000000000000000600052604160045260246000fd5b6119bf82611976565b810181811067ffffffffffffffff821117156119de576119dd611987565b5b80604052505050565b60006119f1611845565b90506119fd82826119b6565b919050565b600067ffffffffffffffff821115611a1d57611a1c611987565b5b602082029050602081019050919050565b600080fd5b6000611a46611a4184611a02565b6119e7565b90508083825260208201905060208402830185811115611a6957611a68611a2e565b5b835b81811015611a925780611a7e888261192f565b845260208401935050602081019050611a6b565b5050509392505050565b600082601f830112611ab157611ab0611971565b5b8135611ac1848260208601611a33565b91505092915050565b600067ffffffffffffffff821115611ae557611ae4611987565b5b602082029050602081019050919050565b6000611b09611b0484611aca565b6119e7565b90508083825260208201905060208402830185811115611b2c57611b2b611a2e565b5b835b81811015611b555780611b41888261187a565b845260208401935050602081019050611b2e565b5050509392505050565b600082601f830112611b7457611b73611971565b5b8135611b84848260208601611af6565b91505092915050565b60008060408385031215611ba457611ba361184f565b5b600083013567ffffffffffffffff811115611bc257611bc1611854565b5b611bce85828601611a9c565b925050602083013567ffffffffffffffff811115611bef57611bee611854565b5b611bfb85828601611b5f565b9150509250929050565b611c0e81611906565b82525050565b6000602082019050611c296000830184611c05565b92915050565b600080600060608486031215611c4857611c4761184f565b5b6000611c568682870161192f565b935050602084013567ffffffffffffffff811115611c7757611c76611854565b5b611c8386828701611a9c565b925050604084013567ffffffffffffffff811115611ca457611ca3611854565b5b611cb086828701611b5f565b9150509250925092565b6000611cc582611906565b9050919050565b611cd581611cba565b8114611ce057600080fd5b50565b600081359050611cf281611ccc565b92915050565b60008060008060808587031215611d1257611d1161184f565b5b6000611d2087828801611ce3565b945050602085013567ffffffffffffffff811115611d4157611d40611854565b5b611d4d87828801611a9c565b935050604085013567ffffffffffffffff811115611d6e57611d6d611854565b5b611d7a87828801611b5f565b925050606085013567ffffffffffffffff811115611d9b57611d9a611854565b5b611da787828801611b5f565b91505092959194509250565b60008060408385031215611dca57611dc961184f565b5b6000611dd88582860161187a565b9250506020611de98582860161187a565b9150509250929050565b6000611dfe82611906565b9050919050565b611e0e81611df3565b8114611e1957600080fd5b50565b600081359050611e2b81611e05565b92915050565b600080600060608486031215611e4a57611e4961184f565b5b6000611e5886828701611e1c565b935050602084013567ffffffffffffffff811115611e7957611e78611854565b5b611e8586828701611a9c565b925050604084013567ffffffffffffffff811115611ea657611ea5611854565b5b611eb286828701611b5f565b9150509250925092565b600082825260208201905092915050565b7f4f776e61626c653a2063616c6c6572206973206e6f7420746865206f776e6572600082015250565b6000611f03602083611ebc565b9150611f0e82611ecd565b602082019050919050565b60006020820190508181036000830152611f3281611ef6565b9050919050565b6000604082019050611f4e6000830185611c05565b611f5b60208301846118bc565b9392505050565b7f63616e277420776974686472617720746f207a65726f20616464726573730000600082015250565b6000611f98601e83611ebc565b9150611fa382611f62565b602082019050919050565b60006020820190508181036000830152611fc781611f8b565b9050919050565b7f746865206163636f756e74732073697a6520616e6420616d6f756e747320736960008201527f7a65206e6f7420657175616c7300000000000000000000000000000000000000602082015250565b600061202a602d83611ebc565b915061203582611fce565b604082019050919050565b600060208201905081810360008301526120598161201d565b9050919050565b7f61727261792073697a652065786365656420746865206172726179206c696d6960008201527f7400000000000000000000000000000000000000000000000000000000000000602082015250565b60006120bc602183611ebc565b91506120c782612060565b604082019050919050565b600060208201905081810360008301526120eb816120af565b9050919050565b7f4e487b7100000000000000000000000000000000000000000000000000000000600052603260045260246000fd5b7f4e487b7100000000000000000000000000000000000000000000000000000000600052601160045260246000fd5b600061215b82611859565b915061216683611859565b9250827fffffffffffffffffffffffffffffffffffffffffffffffffffffffffffffffff0382111561219b5761219a612121565b5b828201905092915050565b60006121b182611859565b91507fffffffffffffffffffffffffffffffffffffffffffffffffffffffffffffffff8214156121e4576121e3612121565b5b600182019050919050565b60006121fa82611859565b915061220583611859565b92508282101561221857612217612121565b5b828203905092915050565b7f686173206e6f20656e6f7567682065746820746f207472616e73666572000000600082015250565b6000612259601d83611ebc565b915061226482612223565b602082019050919050565b600060208201905081810360008301526122888161224c565b9050919050565b60006060820190506122a46000830186611c05565b6122b16020830185611c05565b6122be60408301846118bc565b949350505050565b7f52656365697665727320616e64204944732061726520646966666572656e742060008201527f6c656e6774680000000000000000000000000000000000000000000000000000602082015250565b6000612322602683611ebc565b915061232d826122c6565b604082019050919050565b6000602082019050818103600083015261235181612315565b9050919050565b600082825260208201905092915050565b50565b6000612379600083612358565b915061238482612369565b600082019050919050565b600060a0820190506123a46000830187611c05565b6123b16020830186611c05565b6123be60408301856118bc565b6123cb60608301846118bc565b81810360808301526123dc8161236c565b905095945050505050565b600081519050919050565b600082825260208201905092915050565b6000819050602082019050919050565b61241c81611859565b82525050565b600061242e8383612413565b60208301905092915050565b6000602082019050919050565b6000612452826123e7565b61245c81856123f2565b935061246783612403565b8060005b8381101561249857815161247f8882612422565b975061248a8361243a565b92505060018101905061246b565b5085935050505092915050565b60006060820190506124ba6000830186611c05565b6124c76020830185611c05565b81810360408301526124d98184612447565b9050949350505050565b6000819050919050565b600060ff82169050919050565b6000819050919050565b600061251f61251a612515846124e3565b6124fa565b6124ed565b9050919050565b61252f81612504565b82525050565b600060208201905061254a6000830184612526565b92915050565b7f4f776e61626c653a206e6577206f776e657220697320746865207a65726f206160008201527f6464726573730000000000000000000000000000000000000000000000000000602082015250565b60006125ac602683611ebc565b91506125b782612550565b604082019050919050565b600060208201905081810360008301526125db8161259f565b9050919050565b600081905092915050565b60006125fa6000836125e2565b915061260582612369565b600082019050919050565b600061261b826125ed565b9150819050919050565b7f4661696c656420746f2073656e64206e61746976652061737365747300000000600082015250565b600061265b601c83611ebc565b915061266682612625565b602082019050919050565b6000602082019050818103600083015261268a8161264e565b9050919050565b7f686173206e6f20656e6f75676820666565000000000000000000000000000000600082015250565b60006126c7601183611ebc565b91506126d282612691565b602082019050919050565b600060208201905081810360008301526126f6816126ba565b9050919050565b600061270882611859565b915061271383611859565b9250817fffffffffffffffffffffffffffffffffffffffffffffffffffffffffffffffff048311821515161561274c5761274b612121565b5b828202905092915050565b7f496e697469616c697a61626c653a20636f6e747261637420697320616c72656160008201527f647920696e697469616c697a6564000000000000000000000000000000000000602082015250565b60006127b3602e83611ebc565b91506127be82612757565b604082019050919050565b600060208201905081810360008301526127e2816127a6565b9050919050565b7f496e697469616c697a61626c653a20636f6e7472616374206973206e6f74206960008201527f6e697469616c697a696e67000000000000000000000000000000000000000000602082015250565b6000612845602b83611ebc565b9150612850826127e9565b604082019050919050565b6000602082019050818103600083015261287481612838565b9050919050565b60008115159050919050565b6128908161287b565b811461289b57600080fd5b50565b6000815190506128ad81612887565b92915050565b6000602082840312156128c9576128c861184f565b5b60006128d78482850161289e565b91505092915050565b7f5361666545524332303a204552433230206f7065726174696f6e20646964206e60008201527f6f74207375636365656400000000000000000000000000000000000000000000602082015250565b600061293c602a83611ebc565b9150612947826128e0565b604082019050919050565b6000602082019050818103600083015261296b8161292f565b9050919050565b7f416464726573733a20696e73756666696369656e742062616c616e636520666f60008201527f722063616c6c0000000000000000000000000000000000000000000000000000602082015250565b60006129ce602683611ebc565b91506129d982612972565b604082019050919050565b600060208201905081810360008301526129fd816129c1565b9050919050565b7f416464726573733a2063616c6c20746f206e6f6e2d636f6e7472616374000000600082015250565b6000612a3a601d83611ebc565b9150612a4582612a04565b602082019050919050565b60006020820190508181036000830152612a6981612a2d565b9050919050565b600081519050919050565b60005b83811015612a99578082015181840152602081019050612a7e565b83811115612aa8576000848401525b50505050565b6000612ab982612a70565b612ac381856125e2565b9350612ad3818560208601612a7b565b80840191505092915050565b6000612aeb8284612aae565b915081905092915050565b600081519050919050565b6000612b0c82612af6565b612b168185611ebc565b9350612b26818560208601612a7b565b612b2f81611976565b840191505092915050565b60006020820190508181036000830152612b548184612b01565b90509291505056fea2646970667358221220318fa1217fb176237a8bbc23d93bfb4833d3d08bb8179a8505cee18a0d4afa9364736f6c634300080a0033",
  "linkReferences": {},
  "deployedLinkReferences": {}
}